:100000000C94860F0C94AE0F0C94AE0F0C94AE0FA4
:100010000C94AE0F0C94AE0F0C94AE0F0C94AE0F6C
:100020000C94AE0F0C94AE0F0C94191F0C94881FF7
:100030000C94AE0F0C94AE0F0C94AE0F0C94AE0F4C
:100040000C94AE0F0C94AE0F0C94AE0F0C94AE0F3C
:100050000C94AE0F0C94AE0F0C94AE0F0C94BA210E
:100060000C94AE0F0C94AE0F0C94AE0F0C94AE0F1C
:100070000C94AE0F0C94AE0F0C94AE0F0C94AE0F0C
:100080000C94AE0F0C94AE0F0C94AE0F0C94AE0FFC
:100090000C94AE0F0C94AE0F0C94AE0F0C94AE0FEC
:1000A0000C94AE0F0C9479250C94AE0F1010002018
:1000B000D020C070587C34BC2838B02040000000EC
:1000C0007D0242447530007864510E1C000000002F
:1000D0000070888000A818B8C8E020000000000068
:1000E0000007080041691D0A376E1C3000008000BF
:1000F00040A05048B430C8D05020C00000000001DB
:1001000003060C09446C540A1B516E4F1C00128CE0
:100110002DD665D0258E676EC5D23A702800000FA7
:10012000068076FEC48F3DF06FC30700000000001C
:1001300000A090D878106070B8787830000000186F
:100140003C3C91CEDFDF2E01B7DBDCDE8C00000013
:10015000109A54A42E982EA4549A10000000285CE3
:100160005D542A54555555345A6061405020000062
:10017000B0286CC41206B7A884A0C00040000414C4
:100180009449E9241403095D391870000000440CF7
:10019000814E1CB8045A5A44589C0E418C24044089
:1001A0001EA0DFC09EA1ADA986D08E0013800014D2
:1001B000330A3FDEEB51B8B8B440201000002010E5
:1001C000A05008040E66F9FDCE672210385C0000CE
:1001D00080E05038783850E68F38C000C0E0C0600A
:1001E0004B106590A09065300B60CF030F1A000094
:1001F0000080C06020A0502868C8F830E0C0100817
:100200000D251408A99AC990B8EFDA5B391F804010
:1002100000C0A0408090E496772F9F8EC070013977
:100220004A06396D455D43273E03062C1800000041
:1002300008F400E01A24022102E1554A428000003D
:10024000067906045B405028011E5423030000A0D9
:10025000B0703CF2E5AD023805369005AA100001F9
:10026000403C4E7F1F7E3D72410002010000A040D5
:100270003810880428042880CC902840A000040B63
:1002800003406C050800015369420C0F1200008006
:100290004060100884049208784482400000000006
:1002A000010608102010204020464DD0A00040B08C
:1002B0000804A21244100A020824480000000205A3
:1002C0001828402145122A782A1400000000000056
:1002D000000080C0601014F8621CFC380000020CA2
:1002E000121C16090000070D080C06030102C0A02D
:1002F00000F04A2A3385D1DA6C601EFE0CF000153E
:100300000E0814A22796608D06976EC4408380D095
:10031000B07060D8CC96B696CCD860B0B0900100E2
:100320000100041004A9BD6D280A0000010140204D
:10033000D030ACDC986038DE1EEC18F0000003C151
:1003400034CE3F83BD7E7C089061000700000080B2
:1003500060C060A4AE5A22F03CAE2A0A8A020105AF
:100360004320436A3615190C475A5E3C0807008043
:10037000C0E0405090B064485628A4C0E010060287
:1003800005830041563A0B060300000100010202FA
:1003900086D6DCE8602C262A2A6BEBD20501000009
:1003A0000307074F8C9C98F66502010000003C385B
:1003B000000000000080F8FE0FE3FB1B0B0B8BFB23
:1003C000F3F7F6F6F60606ECECECECECECECECEC09
:1003D000ECECECECECEEE6F6F6F6F7F3FBFBCBCB55
:1003E000FBE30FFEF8801E332121339E00000080C6
:1003F000F8FF0FE0F8F9F9F9F9F9F9F9F1F3F3F386
:10040000F3F0F0FFFFFFFFFFFFFFFFFFFFFFFFFF26
:10041000FFFFFFFFFFFFFFFFFFFFFFFF7F7FFEE00C
:100420000FFFF880060600000000000F3FF0C6072F
:100430000404070707070707070707070707FFFF62
:10044000FFFFFFFFFFFFFFFFFFFFFFFFFFFF0707AC
:10045000070707078787070726860707C6F03F1F96
:1004600000808000000000000000030784C4E4E472
:10047000E4E4E4E4E4E4C49C000FE7E7E7E7E7E74B
:10048000E7E7E7E7C7870F1F0FC7E7E0ECE4E4E41F
:10049000E5E5E4C4040404070300C040C3031100FD
:1004A0000000000000000000FFFFFFFFFF393939A6
:1004B000FFFFFF0FE0E0EFEF0FFFFF183879FFFFBE
:1004C000F703E0E0EFEF0FFFF9F0F0FCFDFDFD0DAD
:1004D000ECE0E0E00000012101000000000080C02D
:1004E000602060C080000000000C0C007EFE803C9C
:1004F0003E1C1C1C1C1C0C0C0E0C0C0C0C0E1E1C94
:100500001C1C1C3C3E80FE7E00000000C0E0E0C0E1
:1005100000000000030300000E1B3166C680D0609F
:10052000311B0E00003828380001471E38202020DB
:1005300020301010D0D01010901030202020203803
:100540001E07010000060600000101000000000077
:100550000000000048454C5020504C415920494E65
:10056000464F20434F4E4600323031372054524FD1
:10057000444F5353202D204A4F33524900534F5577
:100580004E4420204F464620204F4E00030412FFC9
:10059000030412FF030412FF030412FF03051304F4
:1005A00003051304030513040306140203061402CF
:1005B000030715FF030816FF030917FF00040000D7
:1005C0000004000000040000000400000005010514
:1005D0000005010500050105000602FF000602FFF7
:1005E000000703FF000804FF000905FF010406FFE0
:1005F000010406FF010406FF010406FF01050704CC
:1006000001050704010507040106080301060803A4
:10061000010709FF01080AFF01090BFF02040C0191
:1006200002040C0102040C0102040C0102050D0479
:1006300002050D0402050D0402060EFF02060EFF60
:1006400002070FFF020810FF020911FF202000001F
:1006500000008080000000008080E0E0F8F89898BA
:10066000F8F86060E0E0808000000000000000001A
:100670000606F9F9060678781F1F99991F1F0707C4
:100680006767060687876767060618180000000078
:100690000000F9F9060606061818999980800000EE
:1006A000E0E0181881817E7EF8F80000000000006C
:1006B00000001F1F0000181818181F1F0707000050
:1006C0001F1F1E1E1919000001010000000000007C
:1006D00000000000C0C03030000000003030F0F0FA
:1006E000F0F03030000000000000000000000000CA
:1006F00000000000CFCF30303030C0C0F3F3C0C0B6
:100700003333FCFC3F3F0303000000000000000007
:10071000000000000F0F3030000000003030FCFC03
:100720003333CFCF3F3FFCFCC0C0000000000000CF
:10073000000000000000000000000C0C0F0F000083
:10074000000003030F0F000003030000000000007F
:100750000000000000000080806060989880806049
:1007600060808080800000000000000000000060C9
:100770006080809898666619199898676707077867
:1007800078797999998686787880800000000000D1
:1007900000010107071E1E787861611818787898A3
:1007A000986666E7E781817E7E7F7FF8F80000002B
:1007B000000000000000000000000018181E1E19B4
:1007C000190000010119191E1E1818010100000C62
:1007D0000CF0F0F3F33C3C333300003333FCFC3FCC
:1007E0003FFCFC33330C0CCCCC0000C0C000000339
:1007F00003C0C00C0CF3F33C3CF3F30C0CC0C03C46
:100800003C3C3CF0F0F3F30F0F3F3F0C0C000000BA
:1008100000FFFF3C3C00003C3CFCFC3030FFFFF3A1
:10082000F30000FFFF0F0F3F3F000000000000003B
:100830000000000000C0C03F3FFFFFF0F0C0C00F4D
:100840000FFFFF3C3CF0F000000000000000000043
:1008500000000000808060607878F8F86060808038
:10086000E0E0F8F8F8F8F8F8E0E000000000000038
:1008700000000000191978789E9EE7E7E0E087877E
:100880006767F9F9E7E707078181000000000000CA
:100890007878FEFEFEFE60601F1F7F7F7F7F9F9F38
:1008A0000000E7E779797E7E7F7F1E1E0000000052
:1008B00000000101010118181E1E1E1E1E1E01014E
:1008C000000019191E1E1E1E1E1E18180000000012
:1008D00000000000CCCC30303030FCFCC0C0FCFC50
:1008E00030303030CCCC00000000000000000000B0
:1008F00000000303C3C33333CCCC0C0CC3C30C0CB8
:10090000CCCC3333C3C30303000000000000C0C0DD
:10091000F0F0F3F33030CCCC303033333333333387
:100920003030CCCC000003030000000000000C0CB1
:100930003333333333330C0C3333333333333333D5
:100940000F0F33333C3C3C3C303033330C0C000055
:100950000000000000C0C0F0F030300C0C3C3C3F08
:100960003FC0C03030000000000000000000000068
:10097000000000CFCF0C0C3C3CF0F003030000CF94
:10098000CFCCCCC0C0CCCCF0F00000303000003078
:100990003030303030C3C3C3C3303030300F0FC3BA
:1009A000C3F3F3C3C3C0C000000000000000000098
:1009B000000303C3C33030FCFC0C0C030300000035
:1009C0000033330F0F03033F3F00000000003030BF
:1009D000F0F00303FCFCF0F0C0C03030CCCCCCCC49
:1009E0003030C0C0F0F0FCFC0303F0F030303030A9
:1009F0000000C0C030300303CFCF000033333333A7
:100A000030303333C3C300003030C0C00C0C303042
:100A10000000FCFC0000FFFF0000FCFC0303F3F3FC
:100A2000C3C33C3C0000FCFC00000F0F00000000B2
:100A300030300303CCCCF3F3F0F0C3C3CCCCCCCC3C
:100A4000CCCCC0C0F3F3C0C000000303C0C00000A2
:100A500030300F0FCCCCFFFFFCFCCFCF0303C0C066
:100A6000C0C03030000000000000000000000000A6
:100A700003030F0F00000F0FF3F3FCFC3333CFCF52
:100A8000CFCFCFCF30300C0C0303000000000000AC
:100A9000000000000000C0C03030FCFC3C3CC3C380
:100AA000F3F3FCFC3F3F0C0C0000C0C0F0F00C0C5A
:100AB0000303CCCC33330000000000003C3CFFFFBC
:100AC000FFFFF0F03C3C0C0C03030F0F333300002E
:100AD0000000000000000000C0C0C0C0C0C0000096
:100AE0003C3CFFFFC0C00000000000000000000010
:100AF0000000C0C0FCFC33330F0F3F3F0F0F3333F8
:100B0000FCFCC0C00F0FF0F00000F0F0FCFC000097
:100B10000000CFCF0000333300000000000033336B
:100B20000000CFCF0000FFFF0F0FFFFFCCCCF0F095
:100B30003C3C303003033C3CC3C3CCCCC3C33C3C43
:100B40000F0F00003C3CF0F0000000000303000029
:100B500000000000000000008080808080806060D5
:100B6000989898981818F8F8E0E080800000000045
:100B70000000606078781E1E0707616199996666BB
:100B800001010707FEFE9F9FE1E17F7FFEFE60609F
:100B900018181E1E8686666618189898797918188F
:100BA0006060F8F89F9F79797979F8F87F7F000085
:100BB00000000000010100000000191918181E1E95
:100BC000181819191F1F1E1E06060101000000003B
:100BD0000000000000000000000000000000606055
:100BE00078787E7EFEFEFEFEF8F800000000808031
:100BF00060600000E0E09898606080808686F8F889
:100C000086867E7E191987878181E0E07E7E0707D0
:100C10008686989879798787E6E66767E7E71F1FF2
:100C20007F7FF8F81E1E7979E1E1818100000000E4
:100C30001F1F616100001F1F797960606767606036
:100C400018181F1F000000001919070700000000F6
:100C500080806060000000009898606018180606A8
:100C6000181806066666989818180000000000001C
:100C70000101FEFE0000F8F8070718180000181818
:100C80000000F8F866666161606080800000000026
:100C900078788787787861619E9E00000000808068
:100CA0000606F9F960601E1E1E1E0101000000000C
:100CB00000007F7F000000006767606066661919AA
:100CC000000007076666181800000000000000001A
:100CD0000000000000E0E018186666E6E6181880DC
:100CE0008066667878000066669898000000009834
:100CF000989E9E7E7E1F1FFEFEF8F8999900001FA9
:100D00001F00001E1E868600009999060600000737
:100D1000070101E0E0F8F8FFFFFFFFF9F9E6E61848
:100D2000180606000019190606010100000000005F
:100D30000060601F1F61617F7F07077F7F1F1F7E2D
:100D40007E60600000000000000000000000000065
:100D5000000000E0E0808060601818606018186093
:100D6000600000787880806060000000000000660D
:100D7000669898878701016060808006060000867B
:100D800086E0E0F8F861610606989866660000184B
:100D9000186767070700007878191960600000017C
:100DA0000187876161060678787F7F86860000006C
:100DB000000000000018181E1E00000000000000C7
:100DC0000019191E1E181800000000010100000083
:100DD00000000000000080806060181818188686E7
:100DE0006060E0E018180606000000000000000047
:100DF000606098981E1E0101000060600000616143
:100E000000001F1F1818E0E0181800000000000084
:100E1000000001011E1E60608080000080800000D4
:100E2000000000001E1E7979808000000000000094
:100E30000000000000000000010106060101060696
:100E40001818060618181818797966660000000048
:100E50000000000000C0C030300C0C0C0C30300022
:100E600000CCCC0C0CC0C03030C0C0000000000072
:100E7000003030CFCF00000000CCCC030330300373
:100E8000030000000000000C0C30300000000000E7
:100E9000000C0C3333C0C0C0C00000030333330C5C
:100EA0000CCCCCC0C0CCCC30300000000000000026
:100EB000000000000003030C0C30300C0C30300339
:100EC000030C0C3F3F0C0C0303000000000000006B
:100ED0000000000000000000000000000000C0C092
:100EE00000003030C0C0C0C00000000000000000A2
:100EF0000000000000000000C0C0F0F00C0C0C0C62
:100F0000FFFFF0F00F0FFFFF3F3F00000000303009
:100F1000C0C03030C0C0F3F30F0F00000000FCFC75
:100F2000CFCF0000C0C0F3F33C3C0C0C30300000CD
:100F300003030C0C0F0F0C0C030300000000000057
:100F4000030303030303000000000000000000008F
:100F5000000000000000CCCCCCCC0F0F33330303D7
:100F6000CCCCF0F00000FCFCFCFCF0F00000F0F059
:100F7000CCCC0000FFFF30300C0C0F0FC0C0F3F3DF
:100F8000F3F33C3C3C3C0303FFFF0000FFFF000089
:100F90003333FCFCC0C030300C0C3F3F3C3C000005
:100FA000F3F33C3C3F3FFCFC303000000F0F0000EF
:100FB0000303000000000303CCCC0C0CC3C33C3C77
:100FC000C0C00000C3C33C3CF0F03030C0C00000E3
:100FD0008080808080800000E0E078789E9E9E9EE9
:100FE0009E9E7878E0E00000808080808080E0E055
:100FF0007979E7E71F1F1E1E79797878E1E1E7E745
:10100000E1E1787879791E1E6767E7E7E1E10101A0
:101010000000010100001818808018186161F9F9BA
:10102000797960606666000000000101010100003E
:101030000000000000000000010100006666676714
:101040001E1E060600000000000000000000000058
:1010500000000000808080807878F8F8E0E00000F0
:10106000E0E0FEFEFEFE7878E0E080800000000018
:101070009898868679790707E6E6F9F9E1E11E1E78
:10108000070779790101FEFE0101FFFF0000000062
:101090000707010198987E7EFFFF0707F9F9FEFE1A
:1010A000F8F860608080010100001F1F0000000050
:1010B00000007878070778780707606067671F1F68
:1010C0001F1F000061611E1E0000000000000000E4
:1010D00000000000000000003030FCFCCCCC0C0C08
:1010E0000000F0F0FCFCCCCCCCCCCCCC0C0C000048
:1010F000C0C03C3CF0F03C3CCCCCCCCC33330C0CF2
:10110000FFFF0F0FCCCC0C0C0000C0C0000003038D
:1011100033330F0F00000F0FCCCC3C3C3333C3C331
:10112000F0F03F3FCCCCFCFCF0F0C0C03F3F0000F3
:10113000000030300C0C30303C3C0F0F0303030335
:1011400000003030333333330F0F00000000000055
:10115000000000000000000080808080808018185F
:1011600060609E9E60601818000000008080000093
:101170006060F8F8FEFE18189999616167679E9E95
:101180001818999906066666F8F87E7E81811E1EFB
:10119000060619190707000001019E9EE6E667672B
:1011A0001E1E0707000000000101000001010000F1
:1011B00000000000606000001818191907070000FF
:1011C00000000000000000000000000000000C0C07
:1011D0000C0C3C3C3C3CF0F0C0C00000F0F03C3C4F
:1011E000CCCCCCCCCFCFCFCF0C0C3333030300000F
:1011F0000000C0C0F3F3F3F3FCFC3C3C0C0C0C0C03
:101200000C0C0C0C3C3CFCFCF3F300000000000058
:1012100000000F0F3F3F3F3FFFFFF0F0F0F0C0C076
:101220003C3C33330C0C03030000000000000000C2
:1012300000000000000000003030C0C0C3C3C3C3C2
:10124000FFFF3C3C00000000000000000000080818
:1012500000302826FFFF2000004F8F8989F9710098
:10126000007CFE8B89F970000001C1F13D0F030085
:101270000076FF8989FF7600008E9F91D17F3E0026
:10128000080800FF00FF00FF00FF00FF00FF00FF55
:1012900000FF00F0F0F8F8FC0CFE06FF06FF03FF6D
:1012A00003FF03FF03FF07FF07FF0DFFFBFFF3FF34
:1012B0000BFF0BFF0BFF0BFF0BFF0BFF0BFF0BFFDE
:1012C0000BFF0BFFF3FFFBFF0DFF07FF07FF03FF04
:1012D00003FF03FF03FF06FF06FF0CFEF8FCF0F818
:1012E00000F000FFEFFFDFFF30FFE0FF60FFC0FF17
:1012F000C0FFC0FFC0FF60FF60FF30FF1FFF0FFF98
:1013000000FF00FF0FFF1FFF30FF60FF60FFC0FF07
:10131000C0FFC0FFC0FF60FFE0FF30FFDFFFEFFF57
:1013200000FF00FFFFFFFFFF00FFFFFF00FF00FFC8
:1013300000FF00FF00FF00FFFFFF00FFFFFFFFFFB8
:1013400000FF01020303030405060700000008096B
:101350000A00000000000B0A00000000000B0A0059
:10136000000000000B0A00000000000B50726573C3
:101370007320427574746F6E20746F20506C6179A5
:101380000050617373207468652041726475626FE8
:1013900079206F6E20746F003220506C6179657215
:1013A000204D6F6465003120506C61796572204D6D
:1013B0006F64650053656C65637420506C6179657A
:1013C00072204D6F6465003E00416476616E636516
:1013D000640042617369630053656C656374204700
:1013E000616D65204D6F646500801000000000F0A5
:1013F000FE3E2626260680D0D84848F8F80000F0A1
:10140000F8180898F8F80000C8FE7E080880D0D8C0
:101410004848F8F80000307868C8D8980038F88054
:10142000C0F038080000000000F0FE7E62E2F63EE8
:101430001C80D0D84848F8F80000F0F81808D8F810
:10144000300898F8F80000F0F8180818F8F800804C
:10145000D0D84848F8F80000F0F8180898F8F800D4
:1014600000F0F84848787800000000000000000311
:101470000300000000000103030203030300020352
:101480000300000303000000010303030001030342
:1014900002030303000103030203030118180F0FE3
:1014A000030000000000000000030300000103032C
:1014B000000103030203030300020303000003030C
:1014C0000000030300000E0F0303030303000001E9
:1014D00003030203030300040D1B1B190F0F00007D
:1014E000000103030303010000000030203C2C3CFA
:1014F0001C2C2C2C1C0C2C081A00221C2A1020102E
:101500000000100A0B000021211B0C2012110F1CDF
:10151000193C0C290A30103000200304080006068C
:10152000000F09090F0F080A080105010F41726534
:10153000617320576F6E20627900426F6F7374651C
:1015400072004030B0F0F0F0DFAF5EAF56AF56AF94
:1015500056AF7EBF50B050B05FAFD6EBD66BF6FF44
:10156000FEFF7EFF86878687FE7FFEDFEEDFFEFFC3
:101570005EAF5EBF50B070F07FE4D9A04140810003
:10158000010001AAAAFFFFFFF7AA55AA55FA85860E
:101590008786FDFAFD7A7D7F7FEF77BB66EFFE0FD2
:1015A0000D0E0FFCFDFFFFFDFEFFFCFDFFC3C3C3DF
:1015B000C3FEFDFEFDFEF5EAF5AA55AB57FFFCFBA9
:1015C0000C08080AB05050505F5F5D2A2D2E171787
:1015D0001717172F5FB8B858B87FFFF7FBFDF3B7A1
:1015E000DFBFFFFFC3C3C3C37FBFBF5F2F2F2F2F3B
:1015F0002F17172F505050502F2F2F2E17170B0B20
:101600000D030355AA604080003C42BF4343C3C260
:10161000FCF8E0C0C080808000010E19679F7FFF4A
:10162000E1E1E1E1FFFFE39C638000000020D0F8EE
:1016300008080808F0D0A0A0A04040A0A0D0E8F87A
:101640000C0C0C0D43C3C342FD72EC906183041B70
:101650000B17172F505050506F1800000000010258
:1016600002050D133F212161617F7C00000000C352
:101670003DC3FFFFF0F0F0F0FF7FBFD80ED9BF7F72
:10168000FFFFFF5555FF7AF56AD56BD76EFD7AFAE5
:101690000D0D0A0AF4F474E868E868F474F47AFE4C
:1016A00043C343C37EB448B0008000800EB14DFEFA
:1016B0000F0F0F0FFFFF7FFF7EFC7AF661F67AFCBB
:1016C0000E0F0F0D537461727420526F756E64208B
:1016D000210041747461636B730007081E1F33732C
:1016E0002F730C34794C02473C194C3E39786624F0
:1016F00010102858380402010822085D0822080248
:1017000007060810606048756E74004D6167696374
:101710000053706561720053776F6F70004275728D
:101720006E00546F786963000608040E0400011F00
:101730001E332D2D331E04040400011F0404040075
:101740001D17506F776572000808D8B655ED957B68
:10175000463D384C96BDBA944830307C980C028790
:101760007C380105173F6FC70501456C656D656ED7
:1017700074000808000000000000000002030202DC
:101780000303030200000000000072FFFF7200006C
:101790000000000040C04040C0C0C0400201010144
:1017A000010101010302000000000000000302002B
:1017B0000000000000000302000000000000000321
:1017C00002000000000000000302040404040404FA
:1017D0000403546865204361726420596F75204486
:1017E000726577005069636B2061204361726420E9
:1017F000746F20506C617900506C6179656400549D
:101800004945202100506C61796572203200436F98
:101810006D7075746572000A00000F0010001100F1
:1018200018001F0030004500470057000001020368
:1018300040309D1941FFFC05FC0941F4FC069F9FC7
:101840009F4000FC07FC089F402041F0A143FE128E
:10185000B600A012A600A012A200A012A200A0FE34
:101860000DA200A00DA200A40DA200A40DA200A034
:101870000DA200A4FEDFFEFC04A1FC04A5FC04A54F
:10188000FC04A1FC04A5FE0DB7FEEB00506C6179D1
:101890006572203100506C617965720018180B0177
:1018A0000001002040E030180C060100000000009C
:1018B000F0000100010B7E80B0800A59B1C0EA53EC
:1018C000EAC0208840AC2019070130000000D08316
:1018D00007830000C0EBEB14EBC100079B40311EF7
:1018E0000000000080D00B01C0F178B4C0E03010DF
:1018F000C88080C0000080E4F838F1C0010B003ED1
:10190000C70100170F182480C40DA1CC84016D35C8
:101910000000C03F0F00D0800081020000242F1D76
:101920002100100D151300000403000080D057495A
:101930004E5320210008000003000F001B001C0074
:10194000310034003D00000102039D189F403041EA
:10195000FF5004015403FC059F403041FF4E060137
:101960004018FC049F9F2AA300A32AA331B300A31D
:1019700031A338A336A334A336ABFE06DFFE06A29E
:1019800000A006A200A0FE06A200A0FE191800FFFB
:10199000FFFF00FF00FFB0FF6CFFAAFFDAFF2AFF86
:1019A000F6FF8CFF7AFF00FF00FF70FF98FF2CFF0F
:1019B0007AFF34FF88FF70FF00FF00FFFFFF00FF8A
:1019C00000FFFFFF00FF00FFC1FFF1FF60FF31FFDD
:1019D00009FF1CFFF0FFE0FF00FF08FF28FFB8FF32
:1019E000F9FF79FF39FF28FF08FF00FF00FFFFFF25
:1019F00000FF00FF07FF08FF08FF08FF09FF0AFFBD
:101A000008FF08FF0AFF09FF08FF08FF08FF08FF9B
:101A100008FF09FF09FF0AFF08FF08FF08FF08FF8A
:101A200007FF00FF1708FE0101010101010101018B
:101A3000010101010101010101010101FE594553AB
:101A40002020204E4F0057616E7420746F20517516
:101A50006974203F00446F20596F75205265616C96
:101A60006C7900000006011501260137014A015D6D
:101A700001720188019F01B801D201EE010B022A17
:101A8000024B026E029302BA02E40210033F03709B
:101A900003A403DC03170455049704DD042705752C
:101AA00005C80520067D06E0064907B8072D08A9E8
:101AB000082D09B9094D0AEA0A900B400CFA0CC02E
:101AC0000D910E6F0F5A1053115B1272139A14D4AA
:101AD0001520178018F519801B231DDE1EB420A6C3
:101AE00022B524D5F08D14A1C881CFD9F1AF200043
:101AF000F0F89C8E8783878E9CF8F00000FEFF0331
:101B000003030303070EFCF80000FEFF03030303B7
:101B100003070EFCF80000FFFF00000000000000BB
:101B2000FFFF0000FEFF8383838383C7EE7C3800C2
:101B300000F8FC0E07030303070EFCF800003F7FCC
:101B4000E0C08080C0E07F3FFFFF01010101010193
:101B500001FFFF0000FFFF0C0C0C0C1C3E77E3C1E3
:101B600000007FFFC0C0C0C0C0E0703F1F00001F6A
:101B70003F70E0C0C0C0E0703F1F00007FFFC1C1E8
:101B8000C1C1C1E3773E1C00001F3F70E0C0C0C070
:101B9000E0703F1F000000000001FFFF0100000097
:101BA0001B0000110012003200380049004A006793
:101BB000006B0071007A00810088008B009600A104
:101BC00000AC00B500C200CF00DA00E700F400016D
:101BD000011001130123010001020340249E0405AA
:101BE000060741FC54029D18FD06099F9F40404195
:101BF000FAFD0118FC0DFC0EFC0FFC10FC11FC1290
:101C0000FC13FC10FC14FC15FC16FC179FFC1AFDC1
:101C10000C199F40249E0405060741FC54029D18A0
:101C2000FD05099F9F404041FAFC0DFC0EFC0FFC96
:101C300010FC11FC12FC13FC10FC14FC15FC16FC2F
:101C4000179FFD0B199F4020A04000FEFC0AFC0BD3
:101C5000FC0AFC0CFE04AB04AB04ABFE02A302A323
:101C600002A3FE07ABFE28AB28AB28AB28A72AA30C
:101C7000FE2FAB2FAB2FAB2FA72DA3FE2BAB2BAB88
:101C80002BAB2BA72DA3FE26AB26AB26AB26ABFE9C
:101C900034AB34AB34AB34A332A32BA3FE2DAB2D2A
:101CA000AB2DAB2DA32FA328A3FE2BAB2BAB2BABC4
:101CB0002BA72DA3FE34AB34AB34AB34A337A339FD
:101CC000A3FE3BAB3BAB3BAB3BA33EA337A3FE39F1
:101CD000AB39AB39AB39A337A332A3FE34AB4024C5
:101CE00034AB401834AB400C34ABFE00CFFEFC08E4
:101CF000AAFC08AAFC08AAFC08A6FC08A2FECFFEC3
:101D000023176E16AE1566175D168A18DA1E0C1E9E
:101D1000D018080B000202020000090400000102B2
:101D20000200000524001001052401010104240221
:101D3000060524060001070581031000400904017F
:101D400000020A00000007050202400000070583A8
:101D5000024000000403090412010002EF020140E6
:101D60004123368000010102030141726475696EEE
:101D70006F204C4C430041726475696E6F204C6556
:101D80006F6E6172646F00040800000000170000AD
:101D90000003000300140E1C0A161D170D12080480
:101DA000121F151F18030000000E110000110E0075
:101DB0000002050200040E040018000000040404E0
:101DC0000010000000100804021F11111F00121F54
:101DD000101D1515171115151F0704041F171515CC
:101DE0001D1F15151D0101011F1F15151F171515A5
:101DF0001F000A0000001A0000040A11000A0A0A63
:101E00000A110A0400011505071F1117171F0909F8
:101E10001F1F15151B1F1111111F11110E1F151555
:101E2000111F0505011F11151D1F04041F00111F9F
:101E3000111010101F1F04041B1F1010101F060389
:101E40001F1F02041F1F11111F1F0505070705058E
:101E50001F1F0909171715151D01011F011F10105C
:101E60001F0F1008071F0C181F1B04041B07041C5E
:101E700007191515131F11000002040810111F0087
:101E8000000201020010101010010200001A1616C4
:101E90000C1F1414080C1212120814141F0C1A1A16
:101EA00016041E05010416160E1F040418000D105A
:101EB000000810100D1F08081400111F101C060642
:101EC0001C1E02021C0C12120C1C0A0A04040A0A30
:101ED0001C1E04020414161A0A00021F020E10101F
:101EE0001E0E1008060E10180E1608081606081802
:101EF0000E1A1A1616041B1100001F0000111B04F5
:101F000000020201011F1F1F1F00452611241FBED2
:101F1000CFEFDAE0DEBFCDBF11E0A0E0B1E0E2E458
:101F2000F5E502C005900D92A233B107D9F727E07D
:101F3000A2E3B1E001C01D92A935B207E1F71FE0AD
:101F4000C6E8DFE004C02197FE010E94922AC5384E
:101F5000D107C9F70E945E260C949F2A0C940000BA
:101F60006F927F928F929F92AF92BF92CF92DF92A9
:101F7000EF92FF920F931F93CF93DF93DC01FA014F
:101F80001491319654913196C12FD0E0222309F15A
:101F9000CC24C394D12C852F877011F4D12CC12C63
:101FA000E52EE694E694E694EC0CFD2CF11CEC9EF8
:101FB000C001ED9E900DFC9E900D1124033011F494
:101FC000880F991F289F7001299FF00C1124EE0D96
:101FD000FF1D7D01EC0EFD1E1E141F040CF031C10F
:101FE000A038B1050CF02DC1CB01850F911D18163D
:101FF00019060CF026C1603471050CF022C130972F
:1020000009F41FC1362F3770CB0177FD079623E007
:10201000959587952A95E1F7282F77FF04C03323FC
:1020200011F02FEF280F662777276A1B7B0BB7FD70
:1020300002C070E060E090E89A1B40E8E416F1040A
:102040000CF4912F961BE22E022E000CFF08DE2CC2
:10205000D0942F3F0CF0D12C41E0852F877009F4EC
:1020600040E0B52EB694B694B6944B0DE40EF11C38
:1020700089E0E816F10414F048E0421BB42EBD18C4
:102080002D0D40E8240370011124AE0DBF1DA60FD5
:10209000B71F1D9D600D711D1124AF01460F571F05
:1020A000C32E032E000CDD08033009F47EC00A3F66
:1020B00009F441C0023009F0C4C06FEF70E0032E94
:1020C00002C0660F771F0A94E2F760957095972E0D
:1020D0008B2C820E281509F4B4C08D01055D1D4FAF
:1020E000F12CE12CE91608F054C0FA01EE0DFF1DA9
:1020F000E491F0E03F010C2C02C0660C771C0A94BE
:10210000E2F727FD05C0F8018081862386298083B8
:10211000332359F027304CF45801F0E8AF0EB11CCE
:10212000F5018081892187298083FFEFEF1AFF0A5B
:102130000F5F1F4FD7CFB20E2B1509F482C0BD0120
:10214000655D7D4F10E000E0091748F5FA01E00FEA
:10215000F11FE491F0E04F010C2C02C0880C991C97
:102160000A94E2F727FD04C0FB018081882980835F
:10217000332351F0273044F47B01F0E8EF0EF11CDB
:10218000F7018081892980830F5F1F4F6F5F7F4F29
:10219000DBCF2F5F4C0F5D1FA058BF4F9BCF2F5F32
:1021A0004C0F5D1FA058BF4FC7CFE92EF12CFA018D
:1021B000E60FF71FA55DBD4F60E870E06E197F095F
:1021C000CE19DF098E01000F111F41E050E07A01A6
:1021D000032E01C0EE0C0A94EAF7592F4B2D892EDD
:1021E000932ECF93DF93ED01EF96EF962296A59075
:1021F000C590992059F0AE9C5001CE9C60012730CB
:102200002CF4F880D094FD20FB28F99222233AF098
:10221000FC90C094FC20FA28FD920C9410111196A9
:102220005A9529F74A9551F0582D23951124E00F1E
:10223000F11DA60FB11DC60FD11DD9CFDF91CF91D2
:102240001124DF91CF911F910F91FF90EF90DF90BC
:10225000CF90BF90AF909F908F907F906F90089598
:10226000EBE2F2E0A0E0B8E000800EBC8111012CAE
:102270001197A0FDFDCF0192B9F70DB40895FC01AF
:1022800080912A02882311F13FB7F89482E080936D
:10229000E9002091F200822F90E01816190614F43C
:1022A00081E090E0882339F0289844E640932902A1
:1022B0004091F1004083222339F02091F200211156
:1022C00003C02BE62093E8003FBF08958FEF9FEFF8
:1022D00008952FB7F89483E08093E9009091E80087
:1022E000892F807295FF04C09091F20080E4891BD1
:1022F0002FBF08958091210281110DC082E080934B
:102300001D0284E080931E021092200210921F0290
:1023100081E0809321028DE192E00895CF93DF93D5
:102320001F92CDB7DEB76983DC01ED91FC9102808D
:10233000F381E02D41E050E0BE016F5F7F4F0995D2
:102340000F90DF91CF91089583E08093E900809111
:10235000F200882319F08AE38093E80008950E9430
:10236000691190E00895CF93DF931F92CDB7DEB748
:10237000FC018485958597FD08C02FEF3FEF3587D9
:1023800024870F90DF91CF910895CE0101960E948E
:102390003F11019719F4898190E0F3CF8FEF9FEF00
:1023A000F0CF0F931F93CF93DF931F92CDB7DEB77C
:1023B0008C01FC018485958597FF0BC0CE010196A9
:1023C0000E943F11019771F4898190E0F80195878F
:1023D0008487F801848595850F90DF91CF911F91B7
:1023E0000F9108958FEF9FEFF1CFFC0184859585C4
:1023F00097FD0BC09FB7F89482E08093E90080912D
:10240000F2009FBF90E0019608959FB7F89482E094
:102410008093E9008091F2009FBF90E00895409181
:10242000170250911802209115023091160242179E
:102430005307B4F49091E8009570E1F39091E800AF
:1024400092FD19C08093F1008091170290911802BB
:1024500001968F739927892B19F48EEF8093E800EA
:102460008091170290911802019690931802809320
:10247000170281E0089580E00895DF92EF92FF92C5
:102480000F931F93CF93DF93D82E8A01EB017B012B
:10249000E40EF51ECE15DF0559F0D7FE12C0FE0181
:1024A00084910E940F1221968111F4CF0FEF1FEF3C
:1024B000C801DF91CF911F910F91FF90EF90DF90B6
:1024C00008958881EECF0F931F93CF93DF931F92D0
:1024D000CDB7DEB782E0898342E450E062E17DE17E
:1024E00080E80E943D120E947A11DC0112960D9143
:1024F0001C910115110589F0D801ED91FC91028024
:10250000F381E02DBE016F5F7F4FC801099597FDF4
:1025100004C0F80100851185ECCF89810F90DF910F
:10252000CF911F910F910895615030F02091F100EB
:10253000FC0120830196F8CF289884E68093290235
:1025400008953FB7F8948091110290911202A091E2
:102550001302B091140226B5A89B05C02F3F19F0B5
:102560000196A11DB11D3FBFBA2FA92F982F882713
:10257000BC01CD01620F711D811D911D42E0660FEE
:10258000771F881F991F4A95D1F708958F929F92C0
:10259000AF92BF92CF92DF92EF92FF926B017C01DC
:1025A0000E94A1124B015C01C114D104E104F104A9
:1025B000B9F00E94A112681979098A099B09683E3D
:1025C00073408105910580F321E0C21AD108E1082A
:1025D000F10888EE880E83E0981EA11CB11CE4CFA0
:1025E000FF90EF90DF90CF90BF90AF909F908F9033
:1025F00008958F929F92AF92BF92CF92DF92EF9207
:10260000FF920F931F93CF93DF936C017B018A019D
:1026100080911101882309F45CC080912A028823EB
:1026200009F457C080911C0280FF05C08091E00032
:1026300082608093E000E801B12C8AEFA82E93E03D
:10264000892E2AE3922E209711F4BB20D9F10E9403
:10265000691181110AC0AA94AA20D9F161E070E041
:1026600080E090E00E94C612EECF8C171D0611F09C
:102670000CF08C2F9FB7F8948092E9002091E8002D
:1026800025FD02C09FBFDFCF282F30E0C21BD30B38
:10269000F701815020F041914093F100FACFE20E12
:1026A000F31EBB2021F09092E800B12CEBCF80917B
:1026B000E80085FDE7CF9092E800BB24B394209713
:1026C00009F3F3CF5D9884E680931B021016110680
:1026D0003CF081E090E0F6019383828310E000E01B
:1026E000C801DF91CF911F910F91FF90EF90DF9084
:1026F000CF90BF90AF909F908F90089590E0880FFB
:10270000991FE0912D06F0912E06E80FF91F859193
:10271000949120912B0630912C06820F931F0895DF
:102720000F9303E00E94B00F0F9108950F930AEFEB
:102730000E94B00F0F9108950F9302E00E94B00F16
:102740000F9108952D9A0895BC0190E080E00C94BB
:10275000C6128FB18095807F669B88601C9B8460C9
:102760000895109204023E983F9808953E9A3F9A29
:1027700081E080930402089590910702982329F440
:1027800090910802982381E009F480E00895CF93A6
:10279000C82F0E94A913982F9C2381E09C1380E0EE
:1027A000CF910895FC019C012B5F3F4F85E09191F3
:1027B0009F3F09F48150E217F307C9F70895AC0170
:1027C000FC0120E081918F3F21F02F5F2530D1F770
:1027D00020E09091D001E92F092E000CFF0BE0566C
:1027E000FE4F8081420F511D27FD5A95FA018083CB
:1027F0009F5F9093D001903319F491E09093D101B1
:10280000089587FD15C094E0890290011124F90113
:10281000E457FA4F6491F901E357FA4F7491F901C3
:10282000E257FA4F8491F901E157FA4F94910895D4
:1028300090E080E070E060E008958F929F92AF9208
:10284000BF92CF92DF92EF92FF920F931F93CF939D
:10285000DF93C82F062F842FF22E0E940114B62E6C
:10286000972EA82EE92EC090FC01002E000C110B13
:102870000C2E000CDD0B31E0C31219C081E09091E9
:10288000FA019B1180E08F0D8F3F09F43EC081302B
:1028900021F08E3F61F423E001C020E048E257E1DF
:1028A000B80167507109CE01C1960E949C13D12CCA
:1028B000F12C47E0842E8F2D90E0D89C800D911D47
:1028C00011248A9724F586E08F1510F4D394F12C07
:1028D0008F2D90E0FC01D89CE00DF11D1124EE5BE2
:1028E000FC4E249138E0D39EB0011124600F711F7B
:1028F00033E0880F991F3A95E1F740E852E18C0FD9
:102900009D1F0E949013F394D6CF22E0C7CF2CEFE7
:10291000290D4EE452E1480184E0880E911CB40177
:10292000CE0104960E949C132B2D48E457E1B4017C
:10293000CE018C960E949C132A2D4CE456E0B801DF
:10294000605F7F4FCE010C960E949C1331E0C31252
:1029500028C0E7FC26C0B801695F7F4F2E2D4AEDE5
:1029600056E1CE0144960E949C13B801685F7F4FE8
:10297000CE014D962CEF2E0D223088F423E048E254
:1029800057E1DF91CF911F910F91FF90EF90DF9072
:10299000CF90BF90AF909F908F900C949C1322E0AB
:1029A000EECFDF91CF911F910F91FF90EF90DF90CD
:1029B000CF90BF90AF909F908F9008959F92AF92CD
:1029C000BF92CF92DF92EF92FF920F931F93CF931C
:1029D000DF937C0104E010E0B12CCB2D0B2C000C1C
:1029E000DD0BC017D10724F56701CC0EDD1EF60103
:1029F00080810E940114962EA72E2196CE0DDF1DF8
:102A000088810E9401148091FC01813041F4809101
:102A1000FA01891101C0A394861301C07F5FA71634
:102A20002CF4F6018081988190838883B394D5CF6C
:102A30000150110989F6DF91CF911F910F91FF90FD
:102A4000EF90DF90CF90BF90AF909F900895CF927E
:102A5000DF92EF92FF920F931F93CF93DF9300D0FB
:102A60001F92CDB7DEB78AED91E00E94DE148AEDA9
:102A700091E00E94D2138983809302018091D90151
:102A800081111BC08091DA018093FE018FEF80934A
:102A9000DA018091FB01813009F05EC088E080930B
:102AA00013010F900F900F90DF91CF911F910F9115
:102AB000FF90EF90DF90CF9008958091FD010E94EC
:102AC0000114E62ED92E7B83F090FC0181E0F812F0
:102AD00007C08091FA018E1103C0872F8F5F8B830F
:102AE000898181508A83082F880F110B8CEF8D0DFF
:102AF0008983C02E07FD1CC0F801E652FE4F80817D
:102B000087FD24C00E94011481E0F8120DC080915D
:102B1000FA01861301C07F5FD7FC06C0E61621F0DC
:102B20008981823088F472508B81871794F4CA822D
:102B30008A81E82F880FFF0BE652FE4F8081809339
:102B4000FE018FEF8083A5CF7150EECF8A81815037
:102B50008A8301501109CDCF8AE0A1CF8CE00E9479
:102B6000BC13882319F081E080930B020895EF9243
:102B7000FF920F931F93CF93DF9340919B0150914E
:102B80009C01CBE4D1E0FE01F12CA0EFBFEF88E186
:102B9000E82E00E910E02081318187E08F15C8F12F
:102BA00021503109203F8FEF38071CF031832083FB
:102BB00009C011830083548381E0850F6E2D0E942C
:102BC0005E2A592FF394359680E1F812E4CF5093A2
:102BD0009C0140939B0120E049EE53E165E170E0E8
:102BE00090E080E00E9496136A817B812C814CEA00
:102BF00050E0888199810E949613259681E0CB3917
:102C0000D80791F7DF91CF911F910F91FF90EF902F
:102C100008952F5F3F4F2139310544F2B183A083DE
:102C2000448381E0840F6E2D0E945E2A492FCACF13
:102C3000EF92FF920F931F93CF93DF93D82F7A01D8
:102C4000C0E0062F10E0F701EC0FF11DC7FDFA956B
:102C50002081222359F0205247E85DE1B8018D2FF1
:102C600090E00E949613DB5FCF5FEDCFDF91CF91B5
:102C70001F910F91FF90EF900895EF92FF920F93A5
:102C80001F93CF93C82F7A01062F10E0F7012491EC
:102C9000222369F0FFEFEF1AFF0A205247E85DE1B7
:102CA000B8018C2F90E00E949613CB5FEFCFCF91AD
:102CB0001F910F91FF90EF9008950E94B71548E67D
:102CC00055E066E28EE00E943D168CE00E94BC1347
:102CD000882319F081E080930B0208950F931F93CE
:102CE000CF930E94B71544E555E066E28EE00E945E
:102CF0003D16C09101012C2F2250330BC90129E14F
:102D0000289F8001299F100D112420E044E25AE100
:102D100064E270E0C8010C960E94961320E04CE833
:102D200059E16CE270E0C8010B960E94901380E4B8
:102D30000E94BC13882329F0C53018F4CF5FC093DC
:102D4000010180E20E94BC13882339F080910101C7
:102D5000833018F081508093010184E00E94BC13FD
:102D6000882321F08091010180930B02CF911F9164
:102D70000F910895EF92FF920F931F93CF93DF93DC
:102D80001092720021E030E030934A012093490113
:102D9000E0E3F6E048EDDF011D924A95E9F740EFE8
:102DA0004093120149E140932F0641E752E05093CE
:102DB00048014093470130934401209343013093ED
:102DC000F8062093F70622E42093C00021E0209328
:102DD000C1002FEF2093D10020E82093CF00EC0119
:102DE0002196FC018491D0932E06C0932D0690E08D
:102DF000880F991FC80FD91FCE01049690932C06F7
:102E000080932B0630E3E32E36E0F32E10E000E053
:102E1000FE01E00FF11F84910E947E13D7018D9374
:102E20009C930F5F1F4FB6E3EB0EF11C04301105AE
:102E300079F784E080937200DF91CF911F910F9119
:102E4000FF90EF900895CF93DF93C0919D01CF5FE6
:102E5000C0939D0120E04EEA53E064E070E082E21E
:102E600090E00E949613C93720F181E080930B0215
:102E700080EA9BE10E94BA16EBE4F1E050E040E00A
:102E800080E090E020E06EE270E0A2E0B0E0283068
:102E900098F451834083B383A28394839F5F2F5F11
:102EA0004C5E5F4F3596203191F790939C01809353
:102EB0009B01DF91CF910895EA01C05AD109D183D6
:102EC000C0837383628384838F5FE9CF86E08093BE
:102ED0000B0210927200E0E3F6E088EDDF011D9234
:102EE0008A95E9F780EF8093120108958091F901A6
:102EF0008F5F8093F901893124F51092D9018FEF0A
:102F00009FEF9093FE018093FD018093D201809307
:102F1000D3018091D101811106C084ED91E00E941E
:102F2000DF138093D2018091D101811106C08AED17
:102F300091E00E94DF138093D30181E0809313011D
:102F400008958CE080931301109200020895EF928F
:102F5000FF921F93CF93DF93CDB7DEB728970FB6BD
:102F6000F894DEBF0FBECDBF182F7B016A3071050C
:102F700054F420E147E85DE170E060E0812F90E0EB
:102F80000E9496131B5F4AE0BE016F5F7F4FC7012F
:102F90000E94B029AC0160E0812F0E94181628968B
:102FA0000FB6F894DEBF0FBECDBFDF91CF911F915A
:102FB000FF90EF9008958091FF0181111BC045E9BA
:102FC00058E160E00E943D164EE058E160E089E47F
:102FD0000E943D1660910202062E000C770B8EE2D5
:102FE0000E94A71760910102062E000C770B87E75D
:102FF0000C94A7174CE858E160E080E00E943D1671
:1030000045E058E1E3CF0F931F93CF93DF93CDB704
:10301000DEB728970FB6F894DEBF0FBECDBF182FCE
:10302000062FCA014AE0BE016F5F7F4F0E94B029A0
:10303000AC01602F812F0E94181628960FB6F894C5
:10304000DEBF0FBECDBFDF91CF911F910F910895CD
:10305000CF9341E853E164E089E00E943D1645E9E1
:1030600058E162E18CE20E943D164091E001042E9D
:10307000000C550B4F5F5F4F62E18FE40E94031815
:10308000C0E080919E01C81774F420E1C202C00123
:10309000112421E048E257E16CE270E084960E943E
:1030A0009613CF5FEECF84307CF490919F019F5FA9
:1030B000903124F490939F01CF91089510929F0135
:1030C0008F5F80939E01F8CF4CE653E160E28EE083
:1030D0000E943D168CE00E94BC13882369F3809106
:1030E000D101811104C082E080931301E5CF80916A
:1030F000E001811102C085E0F7CF8130E9F686E07A
:10310000F3CF10929F0110929E018DE080931301E6
:103110000C942818CF93DF930E94B7154DE755E024
:1031200066E28DE10E943D16C091040287E1C89FCE
:10313000E001112420E044E25AE164E270E0CE01B3
:10314000CB960E94961320E04CE859E16CE270E0C7
:10315000CE01CA960E94901380E40E94BC13811194
:103160000E94B61380E20E94BC1381110E94B11329
:103170008CE00E94BC13882381F0C091040282E09D
:1031800090E00E94E529C81729F06C2F82E090E0BA
:103190000E94ED2981E080930B02DF91CF91089589
:1031A000EF92FF920F931F93CF93DF9388E080936A
:1031B0000B02E0911301EF3008F0B2C00E2E000CAC
:1031C000FF0BEB51F74E0C94922AF418FC18C81917
:1031D000DF1A6F1BC31AD11A931AFB1B1E1C541C37
:1031E000AD1C231DB31DBB1DDF91CF911F910F910E
:1031F000FF90EF900C9476170E94DB178091FC01F2
:1032000044EC56E1813009F0B2C068E080E20E94EF
:103210003D1620E042E455E160E170E090E080E09E
:103220000E949C134AE355E162E184E40E943D164A
:103230004AE657E16AE184E40E943D162091FA01D2
:1032400048E457E165E170E088E790E00E949C1354
:103250004DE255E168E284E40E943D168091FF0151
:10326000811165C045E958E160E384E40E943D16A0
:10327000C09105012C2F4BE155E160E370E08BE735
:1032800090E00E9496134EE058E168E384E40E94C7
:103290003D1622E02C0F4BE155E168E370E08BE72F
:1032A00090E00E94961301EE11E0D0E0C0E0F8013A
:1032B00021918F0127FD18C0FE01E551FB4E84913D
:1032C000FE01E451FB4E6491220F90910501290FFC
:1032D000062E000C770B605F7F4F4BE155E1082E07
:1032E000000C990B0E9496132296C033D105F9F673
:1032F00080E80E94C713882319F08EE080931301A1
:103300008CE00E94BC13882359F08091FF01811149
:1033100033C08091D101811101C182E080931301FA
:10332000DF91CF911F910F91FF90EF9008954CE89E
:1033300058E160E384E40E943D16C09105012C2F02
:103340004BE155E160E370E086E790E00E94961360
:1033500045E058E168E384E40E943D1622E02C0F2A
:103360004BE155E168E370E086E790E09ACF6DE1CC
:1033700080E20E943D16BCCF8091FB018093E0016A
:10338000DF91CF911F910F91FF90EF900C948118D6
:1033900042ED57E160E086E10E943D16E091E001D8
:1033A0000E2E000CFF0BEE52FE4FC0818091FC01EF
:1033B00020E04C2F60E1813009F0DAC080E00E940B
:1033C0001D148C2F0E940114F62E072FC92F10E018
:1033D000D0E049E0E42E8D2F90E01E9D800D911DE0
:1033E0001124C69704F5D93010F01F5FD0E08D2F5F
:1033F00090E0FC011E9DE00DF11D1124E456F84EF5
:103400002491F8E01F9FB0011124605F7F4F33E0EB
:10341000880F991F3A95E1F742E757E1CD960E9450
:103420009C13DF5FD8CF4AE657E165E187E40E944D
:103430003D162F2D48E457E163E170E083E790E00B
:103440000E949C1342E457E16DE187E40E943D161F
:10345000402F000F550B8091FA016DE1F8126BC0FF
:103460008DE60E94031820E048E257E16DE170E02C
:1034700084E790E00E949613C7FD3EC0C23009F475
:103480006EC00CF05CC0CC2309F466C04DE157E17E
:10349000C13009F45CC02C2F4AED56E164E270E0C3
:1034A00088E690E00E949613C45023E0C23008F0F2
:1034B00022E048E257E165E270E081E790E00E9497
:1034C000961342ED56E16DE280E50E943D16D0E094
:1034D000C0E01CE0CF1569F0D19FC00111242C2F52
:1034E00048E457E164E370E08F5A9F4F0E949613BF
:1034F000DF5FCF5FC43071F780E80E94C713882375
:1035000019F08EE0809313018CE00E94BC13882395
:1035100009F406CF8091FF0181112EC08091FB013B
:10352000813009F089C1DF91CF911F910F91FF90F8
:10353000EF900C94271585E70E9403189DCFC430A7
:10354000A1F084F046E057E1C53009F0A4CF65E270
:103550008BE40E943D169FCF42E257E1F8CF47E14E
:1035600057E1F5CF41E157E1F2CF4BE057E1EFCF23
:1035700084E20E941D14C0CF8091D901882309F4F0
:103580008DC189E0CBCE1092DF0184ED91E00E94E5
:10359000DE1484ED91E00E94D2138093030183E056
:1035A000BDCE1092DF018AED91E00E94DE148AED1B
:1035B00091E00E94D2138093020184E0AFCE44EEEA
:1035C00057E160E081E10E943D16D0E085E0E82E01
:1035D000F12CC091DF0110910301DC17CCF4ED2F29
:1035E0000D2E000CFF0BEC52FE4F8D2F880F970114
:1035F000211B310917FD3395820F880F880F880F23
:1036000020E0408168E18C5F0E941D14DF5FE1CF04
:10361000DFEFD10F85E090E07C01E11AF10817FDA2
:10362000F394DC17BCF08D2F880F8E0D880F880F58
:10363000880F8C5FED2F0D2E000CFF0BEC52FE4F10
:10364000408120E068E1CD170CF060E10E941D147C
:10365000D150E7CF80E80E94C713882319F08EE08D
:103660008093130180E40E94BC13882329F0C117C2
:103670001CF4CF5FC093DF0180E20E94BC1388235B
:1036800039F08091DF0118161CF481508093DF011E
:103690008CE00E94BC13882309F442CEE091DF0144
:1036A0000E2E000CFF0BEC52FE4F80818093FD012B
:1036B0008FEF80838091FB019091FF01911109C0F0
:1036C000813011F48AE02ACE81E08093D90187E02D
:1036D00025CE8130B9F381E08093D9014FCE44EEFD
:1036E00057E160E081E10E943D16D0E005E010E086
:1036F000C091DF01DC17DCF4ED2F0D2E000CFF0B69
:10370000E652FE4F809103019801281B310987FD85
:1037100033958D2F880F820F880F880F880F20E038
:10372000408168E18C5F0E941D14DF5FE1CFF09063
:103730000201DFEFDF0DEF2CEE0C05E010E0DC17EF
:1037400004F1ED2F0D2E000CFF0BE652FE4F4081D1
:10375000809103019801281B310987FD3395C90128
:1037600082508E0D880F880F880F8C5F20E068E1F3
:10377000CD170CF060E10E941D14D150EA94EA9438
:10378000DECF80E80E94C713882319F08EE0809373
:10379000130180E40E94BC13882329F0CF151CF488
:1037A000CF5FC093DF0180E20E94BC13882339F011
:1037B0008091DF0118161CF481508093DF018CE0AA
:1037C0000E94BC13882309F4ABCDE091DF010E2EDB
:1037D000000CFF0BE652FE4F80818093FE018FEFBD
:1037E00080838091FB01813009F06CCF8093D901F7
:1037F0001092E001C5CD4EE058E160E08AE10E9400
:103800003D1648EF57E160E088E40E943D1620E055
:103810004091FE0160E184E20E941D1480E80E9454
:10382000C713882319F08EE0809313018CE00E9467
:10383000BC13882309F474CD85E070CDC1E080917C
:10384000E001813009F4C0E045E958E160E08AE137
:103850000E943D16D0E0AE014F5F5F4F60E08DE308
:103860000E94031848EF57E160E088E40E943D168B
:10387000C350DE4F20E0488160E184E20E941D14C5
:1038800080E80E94C713882319F08EE0809313010B
:103890008CE00E94BC13882309F442CD8091E001A2
:1038A000813051F686E03ACD8091FD010E940114ED
:1038B000162FD92FC72F8091FE010E940114872F48
:1038C0002091FC012130C9F42091FA01121301C0AA
:1038D000CF5F97FD06C0161721F09450923008F57F
:1038E000C250621302C081E0870FD7FD06C01617D1
:1038F00021F0D450D230B8F48250E091F9010E2E6C
:10390000000CFF0BE052FE4FC81318C08091FB0162
:1039100081110BC0809102028F5F8093020210829E
:103920000BC0C150DECF8150E8CF809101028F5F84
:103930008093010281E080838BE0F0CC8C171CF433
:103940001092FB01E7CF91E09093FB01809101027F
:103950008F5F809301029083EFCF8091FD010E94E1
:103960000114F62EC92F8091FE010E940114062F2A
:10397000D92F0E94DB171091FC01113099F4C7FD7B
:103980000CC0F01679F0C450C23008F03FC1CEEF41
:10399000D7FF0BC0D0E0CEEF0DC0D7FD03C0C0E015
:1039A000F01203C0D0E0C0E005C0D450D23008F01F
:1039B00048C0DEEF8091FD0187FD11C08091FB01C1
:1039C000811106C04EE259E168E081E10E943D1696
:1039D0002D2F4091FD0160E180E00E941D14809137
:1039E000FE0187FD11C08091FB01813031F44EE270
:1039F00059E168E089E50E943D162C2F4091FE01B7
:103A000060E188E40E941D1480E80E94C7138823A7
:103A100019F08EE0809313018CE00E94BC13882380
:103A200009F47ECC113051F40E94582924E030E092
:103A300040E050E00E94FB296093FA0110921301CC
:103A40006FCCDFEFB7CF0E94DB179091020280911D
:103A500001028917E4F580910002811107C085E316
:103A600099E10E94BA1681E0809300024EE259E18A
:103A700068E383E30E943D1620E04CE958E16AE1E7
:103A800070E084E390E00E9496138091FF01811121
:103A900019C045E958E160E181E30E943D168CE0E0
:103AA0000E94BC13882309F43BCC81E080930B0275
:103AB00080EA9BE1DF91CF911F910F91FF90EF90F2
:103AC0000C94BA164CE858E160E18CE2E6CF981706
:103AD0008CF54EE259E168E383E30E943D1621E054
:103AE0004CE958E16AE170E084E390E00E949613AB
:103AF000C09100028091FF0181110CC0C11107C06B
:103B000087E198E10E94BA1681E0809300024EE0BE
:103B100058E1DACF45E058E160E18CE20E943D16C1
:103B2000C111BDCF85E399E10E94BA1681E080936F
:103B30000002B5CF4FEF57E160E186E30E943D16EA
:103B400020E04CE958E16AE170E08AE190E00E94EF
:103B5000961321E04CE958E16AE170E08EE490E0D0
:103B60000E9496139CCFDF91CF911F910F91FF90F0
:103B7000EF900C94281845E55AE168E080E20E9435
:103B80003D1646E45AE160E18DE10E943D164DE3A9
:103B90005AE16CE18CE20E943D161091030201E0B3
:103BA000C12FC0273AE1C39FE001112420E044E285
:103BB0005AE16AE170E0CE0188960E94961320E0F7
:103BC0004CE859E162E270E0CE0187960E949013C2
:103BD00080E20E94C713882319F000930302A0CB50
:103BE00080E40E94C713882319F01092030298CB37
:103BF0008CE00E94BC13882309F492CB8091580773
:103C0000113009F08BCB10930B0252CFCFEFD7FFBF
:103C1000CCCED0E0CFEFCECECF92DF92EF92FF921C
:103C2000CF93DF9320E049EE53E164E070E090E051
:103C300080E00E94961344EB53E168E183E10E9427
:103C40003D1646EA53E164E280E20E943D1648E9EF
:103C500053E160E380E20E943D1680E80E94BC13BD
:103C600081111092FF0180E10E94BC13882319F09A
:103C700081E08093FF018CE00E94BC13882309F44B
:103C800087C048E150E06FEF7FEF81EE91E00E9446
:103C9000982A1092D001E0EAF1E080E3DF011D9262
:103CA0008A95E9F7EF0180E081938F5F8033E1F738
:103CB00080E3C82ED12CE12CF12C0E945829A701B9
:103CC00096010E94FB298FEF8C0D861749F08FA576
:103CD000E62F660FFF0BE056FE4F90819FA7808373
:103CE000B1E0CB1AD108E108F108219781E0C816AC
:103CF000D104E104F10409F78091FC01813051F411
:103D00000E94582924E030E040E050E00E94FB2966
:103D10006093FA018FEF8093D2018093D3011092C8
:103D2000F9011092DF011092FB0110920202109231
:103D300001021092D9011092D10185E08093030114
:103D40008093020145E050E06FEF7FEF84ED91E05A
:103D50000E94982A45E050E06FEF7FEF8AED91E0F6
:103D60000E94982A8FEF9FEF9093FE018093FD01B0
:103D7000C4E084ED91E00E94DF138AED91E00E949F
:103D8000DF13C150B1F70E94761788E080930B02D1
:103D90006091FF018CE0689F602D11246C5D47EC01
:103DA00053E18AE1DF91CF91FF90EF90DF90CF90C8
:103DB0000C943D1620E049EE53E164E070E090E0A1
:103DC00080E00E94961348ED53E168E188E10E948B
:103DD0003D1642ED53E164E280E20E943D1649EC5B
:103DE00053E160E380E20E943D1680E80E94BC132C
:103DF00081111092FC0180E10E94BC13882319F00C
:103E000081E08093FC018CE00E94BC13882329F0A0
:103E10000E940C1E87E080930B026091FC018CE0F5
:103E2000689F602D11246C5D47EC53E18AE10C948E
:103E30003D161F920F920FB60F9211248F939F93EE
:103E40008091E1009091E100937F9093E10083FFE6
:103E50000FC01092E90091E09093EB001092EC00FB
:103E600092E39093ED0010922A0298E09093F00074
:103E700082FF22C093E09093E9009091F200992391
:103E800019F09AE39093E80090911B02992341F076
:103E900090911B02915090931B02911101C05D9A69
:103EA00090912902992341F0909129029150909389
:103EB0002902911101C0289A84FF18C08091E20064
:103EC0008E7E81608093E2008091E1008F7E8093FE
:103ED000E10080911C028E7E806180931C029F9184
:103EE0008F910F900FBE0F901F90189580FFF7CF06
:103EF0008091E2008E7E80618093E2008091E100FB
:103F00008E7E8093E10080911C028E7E8160E5CFE1
:103F10001F920F920FB60F921124CF92DF92EF9261
:103F2000FF920F931F932F933F934F935F936F9342
:103F30007F938F939F93AF93BF93EF93FF93CF9311
:103F4000DF93CDB7DEB76C97DEBFCDBF1092E9002F
:103F50008091E80083FF25C068E0CE0145960E946D
:103F6000941282EF8093E8008D8987FF39C0909189
:103F7000E80090FFFCCF982F907609F034C19E891D
:103F80004F89588D2F89F88C911131C0803861F597
:103F900080911A028093F1001092F1008EEF8093CD
:103FA000E8006C960FB6F894DEBF0FBECDBFDF9170
:103FB000CF91FF91EF91BF91AF919F918F917F91A1
:103FC0006F915F914F913F912F911F910F91FF90B2
:103FD000EF90DF90CF900F900FBE0F901F9018952D
:103FE0009EEF9093E800C7CF1092F100D5CF9130AB
:103FF00059F48111D3CF4130510581F680911A02D5
:104000008D7F80931A02CACF933049F48111C6CFB5
:104010004130510519F680911A028260F2CF953035
:1040200041F48091E80080FFFCCF20682093E300FA
:10403000B5CF963009F0A9C00B8D1C8D22E01092EF
:10404000E9001092180210921702F2122EC010927C
:104050001602109215020E9463121F8299E0998342
:10406000FA8291E09E8390EA98879AEF998720914F
:10407000170230911802275F3F4F3C832B838D83BB
:104080001092E90010921802109217021093160273
:104090000093150249E050E0BE016F5F7F4F80E062
:1040A0000E943D120E94631279CF10931602009372
:1040B00015020E947A11DC0112960D911C910115D6
:1040C000110509F451C1D801ED91FC910480F581ED
:1040D000E02DBE016B5E7F4FC8010995009709F086
:1040E0003EC1F80100851185EACFF3E0FF120EC052
:1040F0008F89882309F440C0823061F440E860E190
:1041000086E79DE10E941226811148CF81E28093CB
:10411000EB0047CF813029F440E86BE08AE69DE16F
:10412000F1CF833099F70E947A11DC011296ED905D
:10413000FC908E010F5F1F4F6801E114F10479F0CC
:10414000D701ED91FC910680F781E02DB801C70100
:104150000995080F111DF701E084F184EECFD80115
:104160001C92F60101900020E9F73197BF016C190C
:104170007D0940E0C601C6CF64E57DE1FB014491C5
:1041800050E080E80E943D1209CF973009F4BECF7D
:10419000983021F481E08093F10000CF993009F04C
:1041A000FDCE837009F0B2CFE9E1F1E081E031E0CA
:1041B00096E32191222371F08093E9003093EB0084
:1041C000DF0111972C912093EC009093ED008F5F0D
:1041D000873079F78EE78093EA001092EA008F89A2
:1041E00080932A02DBCE8B8D9C8D1092E900109279
:1041F0001802109217029093160280931502898D6F
:10420000811192C08E899D89913A49F4813209F0D9
:104210007DCF47E050E06AE071E080E0B3CF9132BB
:1042200009F074CF833269F48F89988DB0E0A0E0F3
:104230008093060190930701A0930801B0930901B0
:10424000ADCE803269F48091E80082FFFCCF67E058
:104250008AE091E00E9494128BEF8093E8009ECE5A
:10426000823209F09BCE8F8980931101EEEFFFE738
:10427000859194918B3F9C4D51F1E0E0F8E0809165
:104280000A0190910B01A0910C01B0910D01803BAE
:104290009440A105B105F1F48091110180FD1AC08F
:1042A000EE3F8AE0F80789F587E797E791838083F7
:1042B000809160008093190288E19BE00FB6F8942A
:1042C000A895809360000FBE9093600067CEEEEFDC
:1042D000FAE0D5CF808191818737974709F05ECE8C
:1042E000A895809160008861809360008091190298
:1042F00080936000EE3F2AE0F20789F08091FE0A89
:104300009091FF0A9183808349CE80819181873784
:10431000980751F29093FF0A8093FE0AC5CF10923E
:10432000FF0A1092FE0A3ACE0E947A11DC01129620
:104330000D911C910115110509F4E8CED801ED91FC
:10434000FC910190F081E02DBE016B5E7F4FC801B2
:104350000995811123CEF80100851185EBCF181640
:1043600019060CF41BCED2CEF1E0FF12BECE68E5EA
:104370007DE104CF1F920F920FB60F9211242F935D
:104380003F938F939F93AF93BF9380910D02909132
:104390000E02A0910F02B091100230910C0223E0A6
:1043A000230F2D3758F50196A11DB11D20930C0246
:1043B00080930D0290930E02A0930F02B09310020F
:1043C0008091110290911202A0911302B0911402F7
:1043D0000196A11DB11D8093110290931202A0932A
:1043E0001302B0931402BF91AF919F918F913F91AF
:1043F0002F910F900FBE0F901F90189526E8230F56
:104400000296A11DB11DD2CF2F923F924F925F9283
:104410006F927F928F929F92AF92BF92CF92DF92D4
:10442000EF92FF920F931F93CF93DF9333E3C32E4B
:1044300031E0D32EC0E3D6E010E000E0772473949F
:104440004BE1942E56E3852E69E0462E6DE3562E01
:1044500022242A94322CEEA5EE23A9F08FA59E2FBC
:104460009370891708F49BC0F0E0F595E795F595F2
:10447000E795EE0FFF1FED59F54E85919491F601EA
:10448000928381831FA69CA99923F9F08DA9292FD6
:104490002F77022E000C330B821713060CF489C001
:1044A0008A8197FF7FC081508A838A8181117CC075
:1044B00081E08A83EA81F0E0EE0FFF1FED59F54EAF
:1044C000859194919EA38DA31DAA58A5552321F1F2
:1044D0003AA529A5311119C0422F407426FF6CC09E
:1044E0008DA19EA1850F911D57FD9A9527FD69C04D
:1044F00097FD65C0442309F466C0863BF4E29F073C
:1045000014F085EB94E29EA38DA381E0830F8AA72C
:104510002F73321708F01AA69BA5992371F0EA8130
:10452000EE2359F08DA52CA5482F4F71322F3F71E6
:10453000431708F04AC08F5F8DA749A9442311F1A2
:104540003AA9632F607436FF6CC08DA19EA12BA980
:1045500050E027FF69C0840F951F97FD68C0662350
:1045600009F469C0863B44E2940714F085EB94E2B9
:104570009EA38DA33F71822F8F71831708F05DC0BA
:104580002F5F2BAB89A19AA1009709F45DC08F3FE3
:10459000980709F49AC001979AA389A396C08F5FE0
:1045A0008FA771CF8F5F80CF803408F483CF8FE3E4
:1045B00080CF8F5F8DAB89CF8FA190E093CF90E0BC
:1045C00080E04111A0CF8FA3A0CF807EF1F480E2E4
:1045D0008DA78DA5807E51F09F3F09F1292F22954F
:1045E0002F70E20F803411F49F70E90F88A9F0E07A
:1045F000E80FF11D87FDFA95EE0FFF1FED59F54EFF
:10460000859194919EA38DA398CF803231F426FD9D
:1046100004C09F3F11F080E4DBCF1DA6DACFE0E0BD
:10462000E1CF8FA190E093CF841B950B96CF90E0C4
:1046300080E061119DCF8FA39DCF27FF02C01BAAF1
:10464000A1CF80E88BAB9ECFC8010496672C01C038
:10465000660C8A95EAF7909E5001919EB00C112449
:10466000809EC001819E900D11249C01205D394FD8
:10467000790188819981BC016F5F7F4F798368835D
:10468000FC014491403408F07CC04A83442319F073
:1046900088A9480F4A83EA81F0E0EE0FFF1FED5929
:1046A000F54E859194919EA38DA389A5811102C099
:1046B0008FA58FA38CA585FD1DA689A19AA1009722
:1046C000C1F28F3F980709F066CF20911201822F27
:1046D00090E0002E02C0959587950A94E2F780FD40
:1046E0000AC0033009F0F4C18091F90690E0959575
:1046F000879580934201207F39F5809150069091F3
:104700008606890F9091BC06890F9091F206890F59
:1047100009F4E6C188E0A82E87E0B82E90E3E92EE0
:1047200096E0F92EF70180A10E947E13F701918394
:10473000808312A211A2F6E3EF0EF11CAE14BF04A7
:1047400089F780EF809312010F5F1F4FE696F5E027
:10475000CF0ED11C0430110509F07DCEDF91CF9131
:104760001F910F91FF90EF90DF90CF90BF90AF908F
:104770009F908F907F906F905F904F903F902F9081
:104780000895403A08F009C1E42FE054FF0BEC30E3
:10479000F10509F4BFC00CF04CC0E530F10509F497
:1047A000A2C0F4F4E230F10509F49DC094F430970E
:1047B00009F491C0319709F080CF029699838883DC
:1047C000FB01649168A780E0413409F080E489A787
:1047D00074CFE330F10509F493C0349771F36DCFD2
:1047E000E830F10509F462C0A4F4E630F10509F4FB
:1047F00087C0379709F061CFFB0164916BA79C01DB
:104800002D5F3F4F39832883FC013296E491ECA75A
:1048100054CFEA30F10509F47BC002963B970CF4C3
:1048200071C099838883FB01849168A9680F68AB84
:1048300044CFE331F10509F477C064F5EF30F105B9
:1048400009F470C0DCF4ED30F10509F469C03E975D
:1048500009F033CFFB012591349129AB9C012D5FE9
:104860003F4F39832883FC0132962591349180E0B3
:104870004E3409F080E4820F8AAB1FCFE131F1059D
:1048800009F450C03CF3029699838883FB0164913C
:104890006CAB13CFEC35F10509F451C04CF4E431A5
:1048A000F10509F443C0759709F007CF1BA605CFA2
:1048B000EE35F10509F45CC00CF454C0EF35F10598
:1048C00009F0FBCE809112018625809312011FA270
:1048D0003AA229A2F2CE029699838883FB016491C1
:1048E0006FA36FA7EACEFB01649168A79C012D5FBF
:1048F0003F4F39832883FC013296E491E9A7DDCE4E
:1049000018A6DBCE99838883FB0164916EA7D5CE70
:104910001EA6D3CE029699838883FB01649187CF2C
:1049200018AACBCE19AAC9CE1CAAC7CEFFEFFBA7E7
:10493000029699838883FB0164916CA7BECE029690
:1049400099838883FB016491E0912F066E0F609339
:104950002F0670E0C2010E947E2A70934801609386
:104960004701ABCE029699838883FB016491EFCF18
:10497000A0E3B6E021E030E0FC01E20FF31FE49198
:104980009096EC9390972F5F3F4FD6962530310548
:1049900099F705969983888390CE403E28F44F5925
:1049A000550B5AA349A389CE403EA9F4DE0190E0FD
:1049B00080E09695982F882797958795ED91FD91A2
:1049C000E4912E2F2F77822BE7FDF3CF8F5B9F4F44
:1049D0009AA389A372CE4C3F08F46FCE24E0240F33
:1049E000223008F039C04C3FA9F1029699838883A0
:1049F000FB016491E881F9819F012F5F3F4F39836B
:104A00002883E4915CA15E1701F14F8D842F90E023
:104A10007BA1D701A80FB91F51967C935197589647
:104A20005C93D501A80FB91FAA0FBB1FA05DB94F9A
:104A300080912B0690912C06281B390B14963C93E1
:104A40002E9313974F5F4F8FECA36BA38CA10E9403
:104A50007E13A0CF60E0CECFDE0190E080E04E3F3D
:104A600029F58BA181111FC0EF8DEE2379F3E15061
:104A7000EF8FF0E0D501AE0FBF1FAA0FBB1FA05DE7
:104A8000B94F80912B0690912C0613962D913C9155
:104A9000820F931F99838883EE0DFF1D81898BA35D
:104AA000808D8CA30ACE81508BA3D0CF9695982F62
:104AB000882797958795ED91FD91E4913E2F3F775B
:104AC000832BE7FDF3CF680F791F79836883F5CDDA
:104AD0008DA19EA1F601928381838FA180830BCE4D
:104AE00088EDE0E3F6E011928A95E9F71092720002
:104AF0002BCE2F922FB62F93209132012095209309
:104B0000320109F08BC0BF93AF930F921F92209197
:104B10003E0100904001020E0092400120913F01B1
:104B200010904101121E10924101B12DB7FDB095B8
:104B3000BB0FA0913D01B058BA02110CA12D2091DC
:104B4000340100903601020E0092360120913501A9
:104B500010903701121E10923701212D220F2121B2
:104B6000B091330127FDB195AB0F20913901009031
:104B70003B01020E00923B0120913A0110903C0152
:104B8000121E10923C01B091380117FCB195AB0F89
:104B9000B1E00090430110904401000C111C17FC7F
:104BA0000B2616FC0B260092430110924401B09193
:104BB000420117FCB195AB0FB0910001AB0FA09370
:104BC000CF00B0914A01A0914901119729F0B0930B
:104BD0004A01A09349011EC0B0914801A09147012C
:104BE000B0934A01A093490178943F934F935F9308
:104BF0006F937F938F939F93EF93FF9311240E9462
:104C00000422FF91EF919F918F917F916F915F911E
:104C10004F913F911F900F90AF91BF912F912FBE59
:104C20002F901895EF92FF920F931F93CF93DF93DE
:104C3000F82E192FE62E042F81E0860F880F0E9490
:104C40000F1283E00E940F12CF2DD12FEC0EFD2EFC
:104C5000F11CCE15DF05B9F007FF13C0FE018491EA
:104C60000E940F12182F80E00E940F1281232196BC
:104C70008111EFCFDF91CF911F910F91FF90EF90B6
:104C800008958881EDCF81E0F5CFE8E0F7E0138269
:104C9000128288EE93E0A0E0B0E084839583A6833F
:104CA000B78383E291E0918380838FEF9FEF9587B5
:104CB000848780911301809358070895789484B570
:104CC000826084BD84B5816084BD85B5826085BD08
:104CD00085B5816085BD80916E00816080936E0096
:104CE0001092810080918100826080938100809188
:104CF0008100816080938100809180008160809339
:104D00008000809191008260809391008091910059
:104D100081608093910080919000816080939000E9
:104D20008091C10084608093C1008091C100826045
:104D30008093C1008091C10081608093C100809107
:104D4000C30081608093C3008091C0008260809323
:104D5000C0008091C20081608093C20080917A007F
:104D6000846080937A0080917A00826080937A00D8
:104D700080917A00816080937A0080917A008068C7
:104D800080937A0010922A0210921A0210921C024A
:104D90008091D70081608093D70080EA8093D8000B
:104DA00089B5806189BD89B5826089BD09B400FE7D
:104DB000FDCF61E070E080E090E00E94C61280913B
:104DC000D8008F7C80618093D8008091E000807F44
:104DD0008093E0008091E1008E7E8093E1008DE081
:104DE0008093E200559A209A81EC80937C0085B1F3
:104DF000806F85B984B1877E84B984B1876E84B9A8
:104E00005E9A5F988AB1806D8AB9769A6E9881B3FE
:104E1000806F81BB899880B38D7080BB80E58CBD2D
:104E200081E08DBD85E090E00E94A4135F9A85E04B
:104E300090E00E94A4135E985C98E3EEFAE18491FE
:104E40008EBD00000DB407FEFDCF31960AE1E03FB4
:104E5000F007A9F75C9A81E880936400809165006F
:104E600081608093650080E00E94301180E80E949C
:104E7000C7138823A9F05C9885EA8EBD00000DB4A5
:104E800007FEFDCF5C9A2E982F982D988091640094
:104E900080628093640081E083BF889513BEFCCF5D
:104EA00084E00E94C713882309F448C02D9884E841
:104EB0000E94C7138823E1F00E94A21388EC90E0BF
:104EC0000E94A4132F9882E090E00E94E5298F3F72
:104ED00029F06FEF82E090E00E94ED2984EF91E0ED
:104EE0000E94A4132F9A84E80E94C7138111FBCF5C
:104EF00084E10E94C7138823E1F00E94A21388EC8A
:104F000090E00E94A4132E9882E090E00E94E52990
:104F1000882329F060E082E090E00E94ED2984EF90
:104F200091E00E94A4132E9A84E10E94C71381117C
:104F3000FBCF88EC90E00E94A413B2CF0E94A21392
:104F400082E090E00E94E529882309F481C00E9454
:104F5000B61381E090E00E94E5298470B82E81E0CC
:104F600090E00E94E52981FF12C0B1102E98C1EF98
:104F7000DFEF08E010E078E5A72E80E40E94C71379
:104F8000882309F468C02E9A2F9A0E94A21382E304
:104F900090E00E94A4130E94A9138111F8CF81E22E
:104FA00080930401809164008E7F809364008091DF
:104FB0007A00806480937A0080917A0086FDFCCF2D
:104FC000C0917800D09179000E94A112AB01BC0180
:104FD000CE01B0E0A0E0DC01992788278C019D017B
:104FE000040F151F261F371FC901B8012091640047
:104FF000216020936400611571058105910511F010
:105000000E94A72980EA9BE10E94BA16DD24D3946E
:105010000BE212E093E0E92EF12CC0E0D0E0CC24CA
:10502000C3948FB7F89440910D0250910E02609195
:105030000F02709110028FBFB0900502BB2009F4DF
:105040009CC010920502209761F30E940000E9CFF6
:105050000E94B1137ECFBB2029F0C430D10511F4DA
:105060002E9A2F9881E00E9430119E01D7FF04C034
:10507000222733272C1B3D0B27703327CE01D7FD6A
:10508000079663E0959587956A95E1F7D7FF05C088
:105090000197A801421B530B9A01BC017695762F0C
:1050A000662777956795655D7D4FF12CE12C38017A
:1050B000621A730A8E3F5FEF950709F43DC0AE9CFC
:1050C000D001AF9CB00D112450E040E0A051B54E8E
:1050D0004B01E0E88E0E911C8F3F980791F0FD0187
:1050E000E40FF51FE4916B01C40ED51EF0E02F0113
:1050F000022E01C0440C0A94EAF7F60154884528B0
:10510000448A2115310599F0FD01E40FF51FE49162
:105110006401C40ED51EF0E02F01062C02C0559488
:1051200047940A94E2F7F60154884528448A4F5F71
:105130005F4F4835510581F6019660587F4FEA94DC
:10514000EF28B9F480E00E9430118FE090E00E94D7
:10515000A4132196C931D10509F00FCFBB2011F05E
:105160002F9A2D9880E991E00E94A4130E94A21327
:105170000ECFEE24E394F12C9DCF80910602242FD4
:10518000281B822F90910401291740F48F5F891703
:1051900008F059CFD3BE889513BE55CFC0920502F3
:1051A000409306028091090290910A020196909321
:1051B0000A028093090280910802809307020E94EC
:1051C000A913809308028B2DF80181118FEF002421
:1051D00081938193819381930394D1F7E0910B02A2
:1051E000F0E0EE0FFF1FE050F34E85919491FC012B
:1051F000099580E00E9430118091090290910A0285
:10520000B7010E946A2A892B09F01DCF8091050100
:105210008D258093050117CF8F929F92AF92BF92F9
:10522000CF92DF92EF92FF92CF93DF93EC016881F0
:1052300079818A819B81611571058105910521F430
:1052400064E279ED8BE597E02DE133EF41E050E04A
:105250000E94FB2949015A019B01AC01A7EAB1E474
:105260000E941A2A6B017C01ACEEB4EFA5019401F7
:105270000E94282AC60ED71EE81EF91EF7FE06C099
:1052800081E0C81AD108E10880E8F80AC882D9820A
:10529000EA82FB82C701B6019F77DF91CF91FF9031
:1052A000EF90DF90CF90BF90AF909F908F90089538
:1052B0008F929F92AF92BF92CF92DF92EF92FF9226
:1052C0006091140170911501809116019091170160
:1052D000611571058105910521F464E279ED8BE595
:1052E00097E02DE133EF41E050E00E94FB294901B6
:1052F0005A019B01AC01A7EAB1E40E941A2A6B0192
:105300007C01ACEEB4EFA50194010E94282AC60EE0
:10531000D71EE81EF91EF7FE06C081E0C81AD108A4
:10532000E10880E8F80AC0921401D0921501E092D9
:105330001601F0921701C701B6019F77FF90EF9019
:10534000DF90CF90BF90AF909F908F900895609323
:10535000140170931501809316019093170108951D
:10536000BB274A3031F4992322F4BDE29095819510
:105370009F4F0C94BC29BB27FB015527AA27880FF8
:10538000991FAA1FA41710F0A41B83955051B9F7B9
:10539000A05DAA3308F0A95DA193009779F7B11138
:1053A000B1931192CB010C94D529DC01FC01672F3C
:1053B00071917723E1F7329704C07C916D937083EC
:1053C0006291AE17BF07C8F30895F999FECF92BD59
:1053D00081BDF89A992780B50895262FF999FECFB7
:1053E0001FBA92BD81BD20BD0FB6F894FA9AF99A02
:1053F0000FBE01960895052E97FB1EF400940E949F
:10540000122A57FD07D00E942D2A07FC03D04EF424
:105410000C94122A50954095309521953F4F4F4F4F
:105420005F4F089590958095709561957F4F8F4F50
:105430009F4F08950E944F2AA59F900DB49F900DF5
:10544000A49F800D911D11240895B7FF0C941A2A72
:105450000E941A2A821B930B0895A1E21A2EAA1BFE
:10546000BB1BFD010DC0AA1FBB1FEE1FFF1FA21714
:10547000B307E407F50720F0A21BB30BE40BF50B11
:10548000661F771F881F991F1A9469F7609570959A
:10549000809590959B01AC01BD01CF010895A29F1D
:1054A000B001B39FC001A39F700D811D1124911DF8
:1054B000B29F700D811D1124911D0895991B79E0F3
:1054C00004C0991F961708F0961B881F7A95C9F794
:1054D00080950895AA1BBB1B51E107C0AA1FBB1FE3
:1054E000A617B70710F0A61BB70B881F991F5A9570
:1054F000A9F780959095BC01CD01089597FB072EE3
:1055000016F4009407D077FD09D00E946A2A07FCA0
:1055100005D03EF4909581959F4F089570956195C3
:105520007F4F0895EE0FFF1F0590F491E02D099431
:10553000DC0101C06D9341505040E0F70895F894AC
:02554000FFCF9B
:10554200800305051001FFFFFFFF00E100000000DE
:105552000000F0020100000000C180810000000094
:105562000000008E11F912AF11A411F511B311D17F
:02557200110026
:00000001FF
